{
  "contractName": "SimpleStorage",
  "abi": [
    {
      "constant": false,
      "inputs": [
        {
          "name": "x",
          "type": "uint256"
        }
      ],
      "name": "setData",
      "outputs": [],
      "payable": false,
      "stateMutability": "nonpayable",
      "type": "function"
    },
    {
      "constant": true,
      "inputs": [],
      "name": "getData",
      "outputs": [
        {
          "name": "",
          "type": "uint256"
        }
      ],
      "payable": false,
      "stateMutability": "view",
      "type": "function"
    }
  ],
  "bytecode": "0x608060405234801561001057600080fd5b5060df8061001f6000396000f3006080604052600436106049576000357c0100000000000000000000000000000000000000000000000000000000900463ffffffff1680633bc5de3014604e5780635b4b73a9146076575b600080fd5b348015605957600080fd5b50606060a0565b6040518082815260200191505060405180910390f35b348015608157600080fd5b50609e6004803603810190808035906020019092919050505060a9565b005b60008054905090565b80600081905550505600a165627a7a72305820ec606c9691a210d5363a11382e22a7b021691a242e39f34796440d40934c94bc0029",
  "source": "pragma solidity ^0.4.24;\n\n\ncontract SimpleStorage {\n  uint storedData;\n\n  function setData(uint x) public {\n    storedData = x;\n  }\n\n  function getData() public view returns (uint) {\n    return storedData;\n  }\n}",
  "sourcePath": "/Users/nakajo/work/hicon2018workshop-1/contracts/SimpleStorage.sol",
  "compiler": {
    "name": "solc",
    "version": "0.4.24+commit.e67f0147.Emscripten.clang"
  },
  "schemaVersion": "2.0.1",
  "updatedAt": "2018-10-27T07:08:25.153Z"
}